{
  "contractName": "Blu",
  "abi": [
    {
      "inputs": [],
      "stateMutability": "nonpayable",
      "type": "constructor"
    },
    {
      "anonymous": false,
      "inputs": [
        {
          "indexed": true,
          "internalType": "address",
          "name": "owner",
          "type": "address"
        },
        {
          "indexed": true,
          "internalType": "address",
          "name": "spender",
          "type": "address"
        },
        {
          "indexed": false,
          "internalType": "uint256",
          "name": "value",
          "type": "uint256"
        }
      ],
      "name": "Approval",
      "type": "event"
    },
    {
      "anonymous": false,
      "inputs": [
        {
          "indexed": true,
          "internalType": "address",
          "name": "from",
          "type": "address"
        },
        {
          "indexed": true,
          "internalType": "address",
          "name": "to",
          "type": "address"
        },
        {
          "indexed": false,
          "internalType": "uint256",
          "name": "value",
          "type": "uint256"
        }
      ],
      "name": "Transfer",
      "type": "event"
    },
    {
      "inputs": [
        {
          "internalType": "address",
          "name": "owner",
          "type": "address"
        },
        {
          "internalType": "address",
          "name": "spender",
          "type": "address"
        }
      ],
      "name": "allowance",
      "outputs": [
        {
          "internalType": "uint256",
          "name": "",
          "type": "uint256"
        }
      ],
      "stateMutability": "view",
      "type": "function",
      "constant": true
    },
    {
      "inputs": [
        {
          "internalType": "address",
          "name": "spender",
          "type": "address"
        },
        {
          "internalType": "uint256",
          "name": "amount",
          "type": "uint256"
        }
      ],
      "name": "approve",
      "outputs": [
        {
          "internalType": "bool",
          "name": "",
          "type": "bool"
        }
      ],
      "stateMutability": "nonpayable",
      "type": "function"
    },
    {
      "inputs": [
        {
          "internalType": "address",
          "name": "account",
          "type": "address"
        }
      ],
      "name": "balanceOf",
      "outputs": [
        {
          "internalType": "uint256",
          "name": "",
          "type": "uint256"
        }
      ],
      "stateMutability": "view",
      "type": "function",
      "constant": true
    },
    {
      "inputs": [],
      "name": "decimals",
      "outputs": [
        {
          "internalType": "uint8",
          "name": "",
          "type": "uint8"
        }
      ],
      "stateMutability": "view",
      "type": "function",
      "constant": true
    },
    {
      "inputs": [
        {
          "internalType": "address",
          "name": "spender",
          "type": "address"
        },
        {
          "internalType": "uint256",
          "name": "subtractedValue",
          "type": "uint256"
        }
      ],
      "name": "decreaseAllowance",
      "outputs": [
        {
          "internalType": "bool",
          "name": "",
          "type": "bool"
        }
      ],
      "stateMutability": "nonpayable",
      "type": "function"
    },
    {
      "inputs": [
        {
          "internalType": "address",
          "name": "spender",
          "type": "address"
        },
        {
          "internalType": "uint256",
          "name": "addedValue",
          "type": "uint256"
        }
      ],
      "name": "increaseAllowance",
      "outputs": [
        {
          "internalType": "bool",
          "name": "",
          "type": "bool"
        }
      ],
      "stateMutability": "nonpayable",
      "type": "function"
    },
    {
      "inputs": [],
      "name": "name",
      "outputs": [
        {
          "internalType": "string",
          "name": "",
          "type": "string"
        }
      ],
      "stateMutability": "view",
      "type": "function",
      "constant": true
    },
    {
      "inputs": [],
      "name": "symbol",
      "outputs": [
        {
          "internalType": "string",
          "name": "",
          "type": "string"
        }
      ],
      "stateMutability": "view",
      "type": "function",
      "constant": true
    },
    {
      "inputs": [],
      "name": "totalSupply",
      "outputs": [
        {
          "internalType": "uint256",
          "name": "",
          "type": "uint256"
        }
      ],
      "stateMutability": "view",
      "type": "function",
      "constant": true
    },
    {
      "inputs": [
        {
          "internalType": "address",
          "name": "recipient",
          "type": "address"
        },
        {
          "internalType": "uint256",
          "name": "amount",
          "type": "uint256"
        }
      ],
      "name": "transfer",
      "outputs": [
        {
          "internalType": "bool",
          "name": "",
          "type": "bool"
        }
      ],
      "stateMutability": "nonpayable",
      "type": "function"
    },
    {
      "inputs": [
        {
          "internalType": "address",
          "name": "sender",
          "type": "address"
        },
        {
          "internalType": "address",
          "name": "recipient",
          "type": "address"
        },
        {
          "internalType": "uint256",
          "name": "amount",
          "type": "uint256"
        }
      ],
      "name": "transferFrom",
      "outputs": [
        {
          "internalType": "bool",
          "name": "",
          "type": "bool"
        }
      ],
      "stateMutability": "nonpayable",
      "type": "function"
    },
    {
      "inputs": [
        {
          "internalType": "address",
          "name": "_admin",
          "type": "address"
        }
      ],
      "name": "updateAdmin",
      "outputs": [],
      "stateMutability": "nonpayable",
      "type": "function"
    },
    {
      "inputs": [
        {
          "internalType": "address",
          "name": "_admin",
          "type": "address"
        },
        {
          "internalType": "uint256",
          "name": "_amount",
          "type": "uint256"
        }
      ],
      "name": "mintBlu",
      "outputs": [],
      "stateMutability": "nonpayable",
      "type": "function"
    }
  ],
  "bytecode": "0x60806040523480156200001157600080fd5b506040518060400160405280600981526020017f424c5520544f4b454e00000000000000000000000000000000000000000000008152506040518060400160405280600381526020017f424c550000000000000000000000000000000000000000000000000000000000815250816003908051906020019062000096929190620000f9565b508060049080519060200190620000af929190620000f9565b50505033600560006101000a81548173ffffffffffffffffffffffffffffffffffffffff021916908373ffffffffffffffffffffffffffffffffffffffff1602179055506200020e565b8280546200010790620001a9565b90600052602060002090601f0160209004810192826200012b576000855562000177565b82601f106200014657805160ff191683800117855562000177565b8280016001018555821562000177579182015b828111156200017657825182559160200191906001019062000159565b5b5090506200018691906200018a565b5090565b5b80821115620001a55760008160009055506001016200018b565b5090565b60006002820490506001821680620001c257607f821691505b60208210811415620001d957620001d8620001df565b5b50919050565b7f4e487b7100000000000000000000000000000000000000000000000000000000600052602260045260246000fd5b611a8b806200021e6000396000f3fe608060405234801561001057600080fd5b50600436106100cf5760003560e01c806370a082311161008c578063a457c2d711610066578063a457c2d714610228578063a9059cbb14610258578063dd62ed3e14610288578063e2f273bd146102b8576100cf565b806370a08231146101be578063956c5bf8146101ee57806395d89b411461020a576100cf565b806306fdde03146100d4578063095ea7b3146100f257806318160ddd1461012257806323b872dd14610140578063313ce56714610170578063395093511461018e575b600080fd5b6100dc6102d4565b6040516100e991906114fc565b60405180910390f35b61010c6004803603810190610107919061104f565b610366565b60405161011991906114e1565b60405180910390f35b61012a610384565b604051610137919061167e565b60405180910390f35b61015a60048036038101906101559190611000565b61038e565b60405161016791906114e1565b60405180910390f35b610178610486565b6040516101859190611699565b60405180910390f35b6101a860048036038101906101a3919061104f565b61048f565b6040516101b591906114e1565b60405180910390f35b6101d860048036038101906101d39190610f9b565b61053b565b6040516101e5919061167e565b60405180910390f35b6102086004803603810190610203919061104f565b610583565b005b6102126106a7565b60405161021f91906114fc565b60405180910390f35b610242600480360381019061023d919061104f565b610739565b60405161024f91906114e1565b60405180910390f35b610272600480360381019061026d919061104f565b610824565b60405161027f91906114e1565b60405180910390f35b6102a2600480360381019061029d9190610fc4565b610842565b6040516102af919061167e565b60405180910390f35b6102d260048036038101906102cd9190610f9b565b6108c9565b005b6060600380546102e390611979565b80601f016020809104026020016040519081016040528092919081815260200182805461030f90611979565b801561035c5780601f106103315761010080835404028352916020019161035c565b820191906000526020600020905b81548152906001019060200180831161033f57829003601f168201915b5050505050905090565b600061037a61037361099d565b84846109a5565b6001905092915050565b6000600254905090565b600061039b848484610b70565b6000600160008673ffffffffffffffffffffffffffffffffffffffff1673ffffffffffffffffffffffffffffffffffffffff16815260200190815260200160002060006103e661099d565b73ffffffffffffffffffffffffffffffffffffffff1673ffffffffffffffffffffffffffffffffffffffff16815260200190815260200160002054905082811015610466576040517f08c379a000000000000000000000000000000000000000000000000000000000815260040161045d906115de565b60405180910390fd5b61047a8561047261099d565b8584036109a5565b60019150509392505050565b60006012905090565b600061053161049c61099d565b8484600160006104aa61099d565b73ffffffffffffffffffffffffffffffffffffffff1673ffffffffffffffffffffffffffffffffffffffff16815260200190815260200160002060008873ffffffffffffffffffffffffffffffffffffffff1673ffffffffffffffffffffffffffffffffffffffff1681526020019081526020016000205461052c91906116d0565b6109a5565b6001905092915050565b60008060008373ffffffffffffffffffffffffffffffffffffffff1673ffffffffffffffffffffffffffffffffffffffff168152602001908152602001600020549050919050565b600560009054906101000a900473ffffffffffffffffffffffffffffffffffffffff1673ffffffffffffffffffffffffffffffffffffffff163373ffffffffffffffffffffffffffffffffffffffff1614610613576040517f08c379a000000000000000000000000000000000000000000000000000000000815260040161060a9061159e565b60405180910390fd5b6af8277896582678ac00000061063a8261062c8561053b565b610df190919063ffffffff16565b111561067b576040517f08c379a00000000000000000000000000000000000000000000000000000000081526004016106729061151e565b60405180910390fd5b6106a382610687610486565b600a6106939190611779565b8361069e9190611897565b610e07565b5050565b6060600480546106b690611979565b80601f01602080910402602001604051908101604052809291908181526020018280546106e290611979565b801561072f5780601f106107045761010080835404028352916020019161072f565b820191906000526020600020905b81548152906001019060200180831161071257829003601f168201915b5050505050905090565b6000806001600061074861099d565b73ffffffffffffffffffffffffffffffffffffffff1673ffffffffffffffffffffffffffffffffffffffff16815260200190815260200160002060008573ffffffffffffffffffffffffffffffffffffffff1673ffffffffffffffffffffffffffffffffffffffff16815260200190815260200160002054905082811015610805576040517f08c379a00000000000000000000000000000000000000000000000000000000081526004016107fc9061163e565b60405180910390fd5b61081961081061099d565b858584036109a5565b600191505092915050565b600061083861083161099d565b8484610b70565b6001905092915050565b6000600160008473ffffffffffffffffffffffffffffffffffffffff1673ffffffffffffffffffffffffffffffffffffffff16815260200190815260200160002060008373ffffffffffffffffffffffffffffffffffffffff1673ffffffffffffffffffffffffffffffffffffffff16815260200190815260200160002054905092915050565b600560009054906101000a900473ffffffffffffffffffffffffffffffffffffffff1673ffffffffffffffffffffffffffffffffffffffff163373ffffffffffffffffffffffffffffffffffffffff1614610959576040517f08c379a0000000000000000000000000000000000000000000000000000000008152600401610950906115be565b60405180910390fd5b80600560006101000a81548173ffffffffffffffffffffffffffffffffffffffff021916908373ffffffffffffffffffffffffffffffffffffffff16021790555050565b600033905090565b600073ffffffffffffffffffffffffffffffffffffffff168373ffffffffffffffffffffffffffffffffffffffff161415610a15576040517f08c379a0000000000000000000000000000000000000000000000000000000008152600401610a0c9061161e565b60405180910390fd5b600073ffffffffffffffffffffffffffffffffffffffff168273ffffffffffffffffffffffffffffffffffffffff161415610a85576040517f08c379a0000000000000000000000000000000000000000000000000000000008152600401610a7c9061155e565b60405180910390fd5b80600160008573ffffffffffffffffffffffffffffffffffffffff1673ffffffffffffffffffffffffffffffffffffffff16815260200190815260200160002060008473ffffffffffffffffffffffffffffffffffffffff1673ffffffffffffffffffffffffffffffffffffffff168152602001908152602001600020819055508173ffffffffffffffffffffffffffffffffffffffff168373ffffffffffffffffffffffffffffffffffffffff167f8c5be1e5ebec7d5bd14f71427d1e84f3dd0314c0f7b2291e5b200ac8c7c3b92583604051610b63919061167e565b60405180910390a3505050565b600073ffffffffffffffffffffffffffffffffffffffff168373ffffffffffffffffffffffffffffffffffffffff161415610be0576040517f08c379a0000000000000000000000000000000000000000000000000000000008152600401610bd7906115fe565b60405180910390fd5b600073ffffffffffffffffffffffffffffffffffffffff168273ffffffffffffffffffffffffffffffffffffffff161415610c50576040517f08c379a0000000000000000000000000000000000000000000000000000000008152600401610c479061153e565b60405180910390fd5b610c5b838383610f67565b60008060008573ffffffffffffffffffffffffffffffffffffffff1673ffffffffffffffffffffffffffffffffffffffff16815260200190815260200160002054905081811015610ce1576040517f08c379a0000000000000000000000000000000000000000000000000000000008152600401610cd89061157e565b60405180910390fd5b8181036000808673ffffffffffffffffffffffffffffffffffffffff1673ffffffffffffffffffffffffffffffffffffffff16815260200190815260200160002081905550816000808573ffffffffffffffffffffffffffffffffffffffff1673ffffffffffffffffffffffffffffffffffffffff1681526020019081526020016000206000828254610d7491906116d0565b925050819055508273ffffffffffffffffffffffffffffffffffffffff168473ffffffffffffffffffffffffffffffffffffffff167fddf252ad1be2c89b69c2b068fc378daa952ba7f163c4a11628f55a4df523b3ef84604051610dd8919061167e565b60405180910390a3610deb848484610f6c565b50505050565b60008183610dff91906116d0565b905092915050565b600073ffffffffffffffffffffffffffffffffffffffff168273ffffffffffffffffffffffffffffffffffffffff161415610e77576040517f08c379a0000000000000000000000000000000000000000000000000000000008152600401610e6e9061165e565b60405180910390fd5b610e8360008383610f67565b8060026000828254610e9591906116d0565b92505081905550806000808473ffffffffffffffffffffffffffffffffffffffff1673ffffffffffffffffffffffffffffffffffffffff1681526020019081526020016000206000828254610eea91906116d0565b925050819055508173ffffffffffffffffffffffffffffffffffffffff16600073ffffffffffffffffffffffffffffffffffffffff167fddf252ad1be2c89b69c2b068fc378daa952ba7f163c4a11628f55a4df523b3ef83604051610f4f919061167e565b60405180910390a3610f6360008383610f6c565b5050565b505050565b505050565b600081359050610f8081611a27565b92915050565b600081359050610f9581611a3e565b92915050565b600060208284031215610fad57600080fd5b6000610fbb84828501610f71565b91505092915050565b60008060408385031215610fd757600080fd5b6000610fe585828601610f71565b9250506020610ff685828601610f71565b9150509250929050565b60008060006060848603121561101557600080fd5b600061102386828701610f71565b935050602061103486828701610f71565b925050604061104586828701610f86565b9150509250925092565b6000806040838503121561106257600080fd5b600061107085828601610f71565b925050602061108185828601610f86565b9150509250929050565b61109481611903565b82525050565b60006110a5826116b4565b6110af81856116bf565b93506110bf818560208601611946565b6110c881611a09565b840191505092915050565b60006110e06008836116bf565b91507f746f6f206d7563680000000000000000000000000000000000000000000000006000830152602082019050919050565b60006111206023836116bf565b91507f45524332303a207472616e7366657220746f20746865207a65726f206164647260008301527f65737300000000000000000000000000000000000000000000000000000000006020830152604082019050919050565b60006111866022836116bf565b91507f45524332303a20617070726f766520746f20746865207a65726f20616464726560008301527f73730000000000000000000000000000000000000000000000000000000000006020830152604082019050919050565b60006111ec6026836116bf565b91507f45524332303a207472616e7366657220616d6f756e742065786365656473206260008301527f616c616e636500000000000000000000000000000000000000000000000000006020830152604082019050919050565b60006112526015836116bf565b91507f7468697320697320666f72207468652061646d696e00000000000000000000006000830152602082019050919050565b60006112926028836116bf565b91507f796f7520617265206e6f7420616c6c6f77656420746f2075736520746869732060008301527f66756e6374696f6e0000000000000000000000000000000000000000000000006020830152604082019050919050565b60006112f86028836116bf565b91507f45524332303a207472616e7366657220616d6f756e742065786365656473206160008301527f6c6c6f77616e63650000000000000000000000000000000000000000000000006020830152604082019050919050565b600061135e6025836116bf565b91507f45524332303a207472616e736665722066726f6d20746865207a65726f20616460008301527f64726573730000000000000000000000000000000000000000000000000000006020830152604082019050919050565b60006113c46024836116bf565b91507f45524332303a20617070726f76652066726f6d20746865207a65726f2061646460008301527f72657373000000000000000000000000000000000000000000000000000000006020830152604082019050919050565b600061142a6025836116bf565b91507f45524332303a2064656372656173656420616c6c6f77616e63652062656c6f7760008301527f207a65726f0000000000000000000000000000000000000000000000000000006020830152604082019050919050565b6000611490601f836116bf565b91507f45524332303a206d696e7420746f20746865207a65726f2061646472657373006000830152602082019050919050565b6114cc8161192f565b82525050565b6114db81611939565b82525050565b60006020820190506114f6600083018461108b565b92915050565b60006020820190508181036000830152611516818461109a565b905092915050565b60006020820190508181036000830152611537816110d3565b9050919050565b6000602082019050818103600083015261155781611113565b9050919050565b6000602082019050818103600083015261157781611179565b9050919050565b60006020820190508181036000830152611597816111df565b9050919050565b600060208201905081810360008301526115b781611245565b9050919050565b600060208201905081810360008301526115d781611285565b9050919050565b600060208201905081810360008301526115f7816112eb565b9050919050565b6000602082019050818103600083015261161781611351565b9050919050565b60006020820190508181036000830152611637816113b7565b9050919050565b600060208201905081810360008301526116578161141d565b9050919050565b6000602082019050818103600083015261167781611483565b9050919050565b600060208201905061169360008301846114c3565b92915050565b60006020820190506116ae60008301846114d2565b92915050565b600081519050919050565b600082825260208201905092915050565b60006116db8261192f565b91506116e68361192f565b9250827fffffffffffffffffffffffffffffffffffffffffffffffffffffffffffffffff0382111561171b5761171a6119ab565b5b828201905092915050565b6000808291508390505b60018511156117705780860481111561174c5761174b6119ab565b5b600185161561175b5780820291505b808102905061176985611a1a565b9450611730565b94509492505050565b60006117848261192f565b915061178f83611939565b92506117bc7fffffffffffffffffffffffffffffffffffffffffffffffffffffffffffffffff84846117c4565b905092915050565b6000826117d45760019050611890565b816117e25760009050611890565b81600181146117f8576002811461180257611831565b6001915050611890565b60ff841115611814576118136119ab565b5b8360020a91508482111561182b5761182a6119ab565b5b50611890565b5060208310610133831016604e8410600b84101617156118665782820a905083811115611861576118606119ab565b5b611890565b6118738484846001611726565b9250905081840481111561188a576118896119ab565b5b81810290505b9392505050565b60006118a28261192f565b91506118ad8361192f565b9250817fffffffffffffffffffffffffffffffffffffffffffffffffffffffffffffffff04831182151516156118e6576118e56119ab565b5b828202905092915050565b60006118fc8261190f565b9050919050565b60008115159050919050565b600073ffffffffffffffffffffffffffffffffffffffff82169050919050565b6000819050919050565b600060ff82169050919050565b60005b83811015611964578082015181840152602081019050611949565b83811115611973576000848401525b50505050565b6000600282049050600182168061199157607f821691505b602082108114156119a5576119a46119da565b5b50919050565b7f4e487b7100000000000000000000000000000000000000000000000000000000600052601160045260246000fd5b7f4e487b7100000000000000000000000000000000000000000000000000000000600052602260045260246000fd5b6000601f19601f8301169050919050565b60008160011c9050919050565b611a30816118f1565b8114611a3b57600080fd5b50565b611a478161192f565b8114611a5257600080fd5b5056fea26469706673582212205d3bdd91725a2e45aec547e3f372db54f9b5ad904cedad412d498bb29afa18e964736f6c63430008000033",
  "immutableReferences": {},
  "source": "// SPDX-License-Identifier: MIT\r\npragma solidity ^0.8.0;\r\n\r\nimport '@openzeppelin/contracts/token/ERC20/ERC20.sol';\r\nimport '@openzeppelin/contracts/utils/math/SafeMath.sol';\r\n\r\n\r\ncontract Blu is ERC20  {\r\n    using SafeMath for uint256;\r\n    address  admin;\r\n   // uint256 public bluSupply;\r\n    constructor() ERC20 (\"BLU TOKEN\",\"BLU\"){\r\n            admin= msg.sender;\r\n            \r\n    }\r\n\r\n    function updateAdmin(address _admin)external {\r\n        require(msg.sender==admin,\"you are not allowed to use this function\");\r\n        admin=_admin;\r\n    }\r\n\r\n    function mintBlu(address _admin,uint256 _amount)external {\r\n        require(msg.sender==admin,\"this is for the admin\");\r\n        require(balanceOf(_admin).add(_amount)<=300000000000000000000000000,\"too much\");\r\n\r\n        _mint(_admin, _amount *10**decimals());\r\n\r\n    }\r\n\r\n\r\n}",
  "sourcePath": "C:/Users/enock/blutoken/contracts/Blu.sol",
  "compiler": {
    "name": "solc",
    "version": "0.8.0+commit.c7dfd78e.Emscripten.clang"
  },
  "schemaVersion": "3.4.1",
  "updatedAt": "2021-08-24T23:46:17.197Z",
  "networkType": "ethereum",
  "devdoc": {
    "kind": "dev",
    "methods": {
      "allowance(address,address)": {
        "details": "See {IERC20-allowance}."
      },
      "approve(address,uint256)": {
        "details": "See {IERC20-approve}. Requirements: - `spender` cannot be the zero address."
      },
      "balanceOf(address)": {
        "details": "See {IERC20-balanceOf}."
      },
      "decimals()": {
        "details": "Returns the number of decimals used to get its user representation. For example, if `decimals` equals `2`, a balance of `505` tokens should be displayed to a user as `5.05` (`505 / 10 ** 2`). Tokens usually opt for a value of 18, imitating the relationship between Ether and Wei. This is the value {ERC20} uses, unless this function is overridden; NOTE: This information is only used for _display_ purposes: it in no way affects any of the arithmetic of the contract, including {IERC20-balanceOf} and {IERC20-transfer}."
      },
      "decreaseAllowance(address,uint256)": {
        "details": "Atomically decreases the allowance granted to `spender` by the caller. This is an alternative to {approve} that can be used as a mitigation for problems described in {IERC20-approve}. Emits an {Approval} event indicating the updated allowance. Requirements: - `spender` cannot be the zero address. - `spender` must have allowance for the caller of at least `subtractedValue`."
      },
      "increaseAllowance(address,uint256)": {
        "details": "Atomically increases the allowance granted to `spender` by the caller. This is an alternative to {approve} that can be used as a mitigation for problems described in {IERC20-approve}. Emits an {Approval} event indicating the updated allowance. Requirements: - `spender` cannot be the zero address."
      },
      "name()": {
        "details": "Returns the name of the token."
      },
      "symbol()": {
        "details": "Returns the symbol of the token, usually a shorter version of the name."
      },
      "totalSupply()": {
        "details": "See {IERC20-totalSupply}."
      },
      "transfer(address,uint256)": {
        "details": "See {IERC20-transfer}. Requirements: - `recipient` cannot be the zero address. - the caller must have a balance of at least `amount`."
      },
      "transferFrom(address,address,uint256)": {
        "details": "See {IERC20-transferFrom}. Emits an {Approval} event indicating the updated allowance. This is not required by the EIP. See the note at the beginning of {ERC20}. Requirements: - `sender` and `recipient` cannot be the zero address. - `sender` must have a balance of at least `amount`. - the caller must have allowance for ``sender``'s tokens of at least `amount`."
      }
    },
    "version": 1
  },
  "userdoc": {
    "kind": "user",
    "methods": {},
    "version": 1
  }
}